{"abi":[{"type":"constructor","inputs":[{"name":"initialOwner","type":"address","internalType":"address"}],"stateMutability":"nonpayable"},{"type":"function","name":"_name","inputs":[],"outputs":[{"name":"","type":"string","internalType":"string"}],"stateMutability":"view"},{"type":"function","name":"_symbol","inputs":[],"outputs":[{"name":"","type":"string","internalType":"string"}],"stateMutability":"view"},{"type":"function","name":"allowance","inputs":[{"name":"owner","type":"address","internalType":"address"},{"name":"spender","type":"address","internalType":"address"}],"outputs":[{"name":"","type":"uint256","internalType":"uint256"}],"stateMutability":"view"},{"type":"function","name":"approve","inputs":[{"name":"spender","type":"address","internalType":"address"},{"name":"value","type":"uint256","internalType":"uint256"}],"outputs":[{"name":"","type":"bool","internalType":"bool"}],"stateMutability":"nonpayable"},{"type":"function","name":"balanceOf","inputs":[{"name":"account","type":"address","internalType":"address"}],"outputs":[{"name":"","type":"uint256","internalType":"uint256"}],"stateMutability":"view"},{"type":"function","name":"burn","inputs":[{"name":"_amount","type":"uint256","internalType":"uint256"}],"outputs":[],"stateMutability":"nonpayable"},{"type":"function","name":"decimals","inputs":[],"outputs":[{"name":"","type":"uint8","internalType":"uint8"}],"stateMutability":"view"},{"type":"function","name":"mint","inputs":[{"name":"_amount","type":"uint256","internalType":"uint256"}],"outputs":[],"stateMutability":"nonpayable"},{"type":"function","name":"name","inputs":[],"outputs":[{"name":"","type":"string","internalType":"string"}],"stateMutability":"view"},{"type":"function","name":"owner","inputs":[],"outputs":[{"name":"","type":"address","internalType":"address"}],"stateMutability":"view"},{"type":"function","name":"renounceOwnership","inputs":[],"outputs":[],"stateMutability":"nonpayable"},{"type":"function","name":"symbol","inputs":[],"outputs":[{"name":"","type":"string","internalType":"string"}],"stateMutability":"view"},{"type":"function","name":"totalSupply","inputs":[],"outputs":[{"name":"","type":"uint256","internalType":"uint256"}],"stateMutability":"view"},{"type":"function","name":"transfer","inputs":[{"name":"to","type":"address","internalType":"address"},{"name":"value","type":"uint256","internalType":"uint256"}],"outputs":[{"name":"","type":"bool","internalType":"bool"}],"stateMutability":"nonpayable"},{"type":"function","name":"transferFrom","inputs":[{"name":"from","type":"address","internalType":"address"},{"name":"to","type":"address","internalType":"address"},{"name":"value","type":"uint256","internalType":"uint256"}],"outputs":[{"name":"","type":"bool","internalType":"bool"}],"stateMutability":"nonpayable"},{"type":"function","name":"transferOwnership","inputs":[{"name":"newOwner","type":"address","internalType":"address"}],"outputs":[],"stateMutability":"nonpayable"},{"type":"event","name":"Approval","inputs":[{"name":"owner","type":"address","indexed":true,"internalType":"address"},{"name":"spender","type":"address","indexed":true,"internalType":"address"},{"name":"value","type":"uint256","indexed":false,"internalType":"uint256"}],"anonymous":false},{"type":"event","name":"Burn","inputs":[{"name":"amount","type":"uint256","indexed":true,"internalType":"uint256"}],"anonymous":false},{"type":"event","name":"Mint","inputs":[{"name":"amount","type":"uint256","indexed":true,"internalType":"uint256"}],"anonymous":false},{"type":"event","name":"OwnershipTransferred","inputs":[{"name":"previousOwner","type":"address","indexed":true,"internalType":"address"},{"name":"newOwner","type":"address","indexed":true,"internalType":"address"}],"anonymous":false},{"type":"event","name":"Transfer","inputs":[{"name":"from","type":"address","indexed":true,"internalType":"address"},{"name":"to","type":"address","indexed":true,"internalType":"address"},{"name":"value","type":"uint256","indexed":false,"internalType":"uint256"}],"anonymous":false},{"type":"error","name":"ERC20InsufficientAllowance","inputs":[{"name":"spender","type":"address","internalType":"address"},{"name":"allowance","type":"uint256","internalType":"uint256"},{"name":"needed","type":"uint256","internalType":"uint256"}]},{"type":"error","name":"ERC20InsufficientBalance","inputs":[{"name":"sender","type":"address","internalType":"address"},{"name":"balance","type":"uint256","internalType":"uint256"},{"name":"needed","type":"uint256","internalType":"uint256"}]},{"type":"error","name":"ERC20InvalidApprover","inputs":[{"name":"approver","type":"address","internalType":"address"}]},{"type":"error","name":"ERC20InvalidReceiver","inputs":[{"name":"receiver","type":"address","internalType":"address"}]},{"type":"error","name":"ERC20InvalidSender","inputs":[{"name":"sender","type":"address","internalType":"address"}]},{"type":"error","name":"ERC20InvalidSpender","inputs":[{"name":"spender","type":"address","internalType":"address"}]},{"type":"error","name":"OwnableInvalidOwner","inputs":[{"name":"owner","type":"address","internalType":"address"}]},{"type":"error","name":"OwnableUnauthorizedAccount","inputs":[{"name":"account","type":"address","internalType":"address"}]}],"bytecode":{"object":"0x60806040526040518060400160405280600881526020017f4c754c75436f696e000000000000000000000000000000000000000000000000815250600690816100489190610576565b506040518060400160405280600381526020017f4c4c4300000000000000000000000000000000000000000000000000000000008152506007908161008d9190610576565b50348015610099575f5ffd5b50604051611adf380380611adf83398181016040528101906100bb91906106a3565b80600680546100c99061039d565b80601f01602080910402602001604051908101604052809291908181526020018280546100f59061039d565b80156101405780601f1061011757610100808354040283529160200191610140565b820191905f5260205f20905b81548152906001019060200180831161012357829003601f168201915b5050505050600780546101529061039d565b80601f016020809104026020016040519081016040528092919081815260200182805461017e9061039d565b80156101c95780601f106101a0576101008083540402835291602001916101c9565b820191905f5260205f20905b8154815290600101906020018083116101ac57829003601f168201915b505050505081600390816101dd9190610576565b5080600490816101ed9190610576565b5050505f73ffffffffffffffffffffffffffffffffffffffff168173ffffffffffffffffffffffffffffffffffffffff1603610260575f6040517f1e4fbdf700000000000000000000000000000000000000000000000000000000815260040161025791906106dd565b60405180910390fd5b61026f8161027660201b60201c565b50506106f6565b5f60055f9054906101000a900473ffffffffffffffffffffffffffffffffffffffff1690508160055f6101000a81548173ffffffffffffffffffffffffffffffffffffffff021916908373ffffffffffffffffffffffffffffffffffffffff1602179055508173ffffffffffffffffffffffffffffffffffffffff168173ffffffffffffffffffffffffffffffffffffffff167f8be0079c531659141344cd1fd0a4f28419497f9722a3daafe3b4186f6b6457e060405160405180910390a35050565b5f81519050919050565b7f4e487b71000000000000000000000000000000000000000000000000000000005f52604160045260245ffd5b7f4e487b71000000000000000000000000000000000000000000000000000000005f52602260045260245ffd5b5f60028204905060018216806103b457607f821691505b6020821081036103c7576103c6610370565b5b50919050565b5f819050815f5260205f209050919050565b5f6020601f8301049050919050565b5f82821b905092915050565b5f600883026104297fffffffffffffffffffffffffffffffffffffffffffffffffffffffffffffffff826103ee565b61043386836103ee565b95508019841693508086168417925050509392505050565b5f819050919050565b5f819050919050565b5f61047761047261046d8461044b565b610454565b61044b565b9050919050565b5f819050919050565b6104908361045d565b6104a461049c8261047e565b8484546103fa565b825550505050565b5f5f905090565b6104bb6104ac565b6104c6818484610487565b505050565b5b818110156104e9576104de5f826104b3565b6001810190506104cc565b5050565b601f82111561052e576104ff816103cd565b610508846103df565b81016020851015610517578190505b61052b610523856103df565b8301826104cb565b50505b505050565b5f82821c905092915050565b5f61054e5f1984600802610533565b1980831691505092915050565b5f610566838361053f565b9150826002028217905092915050565b61057f82610339565b67ffffffffffffffff81111561059857610597610343565b5b6105a2825461039d565b6105ad8282856104ed565b5f60209050601f8311600181146105de575f84156105cc578287015190505b6105d6858261055b565b86555061063d565b601f1984166105ec866103cd565b5f5b82811015610613578489015182556001820191506020850194506020810190506105ee565b86831015610630578489015161062c601f89168261053f565b8355505b6001600288020188555050505b505050505050565b5f5ffd5b5f73ffffffffffffffffffffffffffffffffffffffff82169050919050565b5f61067282610649565b9050919050565b61068281610668565b811461068c575f5ffd5b50565b5f8151905061069d81610679565b92915050565b5f602082840312156106b8576106b7610645565b5b5f6106c58482850161068f565b91505092915050565b6106d781610668565b82525050565b5f6020820190506106f05f8301846106ce565b92915050565b6113dc806107035f395ff3fe608060405234801561000f575f5ffd5b50600436106100fe575f3560e01c80638da5cb5b11610095578063b09f126611610064578063b09f12661461029a578063d28d8852146102b8578063dd62ed3e146102d6578063f2fde38b14610306576100fe565b80638da5cb5b1461021257806395d89b4114610230578063a0712d681461024e578063a9059cbb1461026a576100fe565b8063313ce567116100d1578063313ce5671461019e57806342966c68146101bc57806370a08231146101d8578063715018a614610208576100fe565b806306fdde0314610102578063095ea7b31461012057806318160ddd1461015057806323b872dd1461016e575b5f5ffd5b61010a610322565b604051610117919061102a565b60405180910390f35b61013a600480360381019061013591906110db565b6103b2565b6040516101479190611133565b60405180910390f35b6101586103d4565b604051610165919061115b565b60405180910390f35b61018860048036038101906101839190611174565b6103dd565b6040516101959190611133565b60405180910390f35b6101a661040b565b6040516101b391906111df565b60405180910390f35b6101d660048036038101906101d191906111f8565b610413565b005b6101f260048036038101906101ed9190611223565b610455565b6040516101ff919061115b565b60405180910390f35b61021061049a565b005b61021a6104ad565b604051610227919061125d565b60405180910390f35b6102386104d5565b604051610245919061102a565b60405180910390f35b610268600480360381019061026391906111f8565b610565565b005b610284600480360381019061027f91906110db565b6105ae565b6040516102919190611133565b60405180910390f35b6102a26105d0565b6040516102af919061102a565b60405180910390f35b6102c061065c565b6040516102cd919061102a565b60405180910390f35b6102f060048036038101906102eb9190611276565b6106e8565b6040516102fd919061115b565b60405180910390f35b610320600480360381019061031b9190611223565b61076a565b005b606060038054610331906112e1565b80601f016020809104026020016040519081016040528092919081815260200182805461035d906112e1565b80156103a85780601f1061037f576101008083540402835291602001916103a8565b820191905f5260205f20905b81548152906001019060200180831161038b57829003601f168201915b5050505050905090565b5f5f6103bc6107ee565b90506103c98185856107f5565b600191505092915050565b5f600254905090565b5f5f6103e76107ee565b90506103f4858285610807565b6103ff85858561089a565b60019150509392505050565b5f6012905090565b61041b61098a565b6104253382610a11565b807f07883703ed0e86588a40d76551c92f8a4b329e3bf19765e0e6749473c1a8466560405160405180910390a250565b5f5f5f8373ffffffffffffffffffffffffffffffffffffffff1673ffffffffffffffffffffffffffffffffffffffff1681526020019081526020015f20549050919050565b6104a261098a565b6104ab5f610a90565b565b5f60055f9054906101000a900473ffffffffffffffffffffffffffffffffffffffff16905090565b6060600480546104e4906112e1565b80601f0160208091040260200160405190810160405280929190818152602001828054610510906112e1565b801561055b5780601f106105325761010080835404028352916020019161055b565b820191905f5260205f20905b81548152906001019060200180831161053e57829003601f168201915b5050505050905090565b61056d61098a565b61057e6105786104ad565b82610b53565b807f07883703ed0e86588a40d76551c92f8a4b329e3bf19765e0e6749473c1a8466560405160405180910390a250565b5f5f6105b86107ee565b90506105c581858561089a565b600191505092915050565b600780546105dd906112e1565b80601f0160208091040260200160405190810160405280929190818152602001828054610609906112e1565b80156106545780601f1061062b57610100808354040283529160200191610654565b820191905f5260205f20905b81548152906001019060200180831161063757829003601f168201915b505050505081565b60068054610669906112e1565b80601f0160208091040260200160405190810160405280929190818152602001828054610695906112e1565b80156106e05780601f106106b7576101008083540402835291602001916106e0565b820191905f5260205f20905b8154815290600101906020018083116106c357829003601f168201915b505050505081565b5f60015f8473ffffffffffffffffffffffffffffffffffffffff1673ffffffffffffffffffffffffffffffffffffffff1681526020019081526020015f205f8373ffffffffffffffffffffffffffffffffffffffff1673ffffffffffffffffffffffffffffffffffffffff1681526020019081526020015f2054905092915050565b61077261098a565b5f73ffffffffffffffffffffffffffffffffffffffff168173ffffffffffffffffffffffffffffffffffffffff16036107e2575f6040517f1e4fbdf70000000000000000000000000000000000000000000000000000000081526004016107d9919061125d565b60405180910390fd5b6107eb81610a90565b50565b5f33905090565b6108028383836001610bd2565b505050565b5f61081284846106e8565b90507fffffffffffffffffffffffffffffffffffffffffffffffffffffffffffffffff8110156108945781811015610885578281836040517ffb8f41b200000000000000000000000000000000000000000000000000000000815260040161087c93929190611311565b60405180910390fd5b61089384848484035f610bd2565b5b50505050565b5f73ffffffffffffffffffffffffffffffffffffffff168373ffffffffffffffffffffffffffffffffffffffff160361090a575f6040517f96c6fd1e000000000000000000000000000000000000000000000000000000008152600401610901919061125d565b60405180910390fd5b5f73ffffffffffffffffffffffffffffffffffffffff168273ffffffffffffffffffffffffffffffffffffffff160361097a575f6040517fec442f05000000000000000000000000000000000000000000000000000000008152600401610971919061125d565b60405180910390fd5b610985838383610da1565b505050565b6109926107ee565b73ffffffffffffffffffffffffffffffffffffffff166109b06104ad565b73ffffffffffffffffffffffffffffffffffffffff1614610a0f576109d36107ee565b6040517f118cdaa7000000000000000000000000000000000000000000000000000000008152600401610a06919061125d565b60405180910390fd5b565b5f73ffffffffffffffffffffffffffffffffffffffff168273ffffffffffffffffffffffffffffffffffffffff1603610a81575f6040517f96c6fd1e000000000000000000000000000000000000000000000000000000008152600401610a78919061125d565b60405180910390fd5b610a8c825f83610da1565b5050565b5f60055f9054906101000a900473ffffffffffffffffffffffffffffffffffffffff1690508160055f6101000a81548173ffffffffffffffffffffffffffffffffffffffff021916908373ffffffffffffffffffffffffffffffffffffffff1602179055508173ffffffffffffffffffffffffffffffffffffffff168173ffffffffffffffffffffffffffffffffffffffff167f8be0079c531659141344cd1fd0a4f28419497f9722a3daafe3b4186f6b6457e060405160405180910390a35050565b5f73ffffffffffffffffffffffffffffffffffffffff168273ffffffffffffffffffffffffffffffffffffffff1603610bc3575f6040517fec442f05000000000000000000000000000000000000000000000000000000008152600401610bba919061125d565b60405180910390fd5b610bce5f8383610da1565b5050565b5f73ffffffffffffffffffffffffffffffffffffffff168473ffffffffffffffffffffffffffffffffffffffff1603610c42575f6040517fe602df05000000000000000000000000000000000000000000000000000000008152600401610c39919061125d565b60405180910390fd5b5f73ffffffffffffffffffffffffffffffffffffffff168373ffffffffffffffffffffffffffffffffffffffff1603610cb2575f6040517f94280d62000000000000000000000000000000000000000000000000000000008152600401610ca9919061125d565b60405180910390fd5b8160015f8673ffffffffffffffffffffffffffffffffffffffff1673ffffffffffffffffffffffffffffffffffffffff1681526020019081526020015f205f8573ffffffffffffffffffffffffffffffffffffffff1673ffffffffffffffffffffffffffffffffffffffff1681526020019081526020015f20819055508015610d9b578273ffffffffffffffffffffffffffffffffffffffff168473ffffffffffffffffffffffffffffffffffffffff167f8c5be1e5ebec7d5bd14f71427d1e84f3dd0314c0f7b2291e5b200ac8c7c3b92584604051610d92919061115b565b60405180910390a35b50505050565b5f73ffffffffffffffffffffffffffffffffffffffff168373ffffffffffffffffffffffffffffffffffffffff1603610df1578060025f828254610de59190611373565b92505081905550610ebf565b5f5f5f8573ffffffffffffffffffffffffffffffffffffffff1673ffffffffffffffffffffffffffffffffffffffff1681526020019081526020015f2054905081811015610e7a578381836040517fe450d38c000000000000000000000000000000000000000000000000000000008152600401610e7193929190611311565b60405180910390fd5b8181035f5f8673ffffffffffffffffffffffffffffffffffffffff1673ffffffffffffffffffffffffffffffffffffffff1681526020019081526020015f2081905550505b5f73ffffffffffffffffffffffffffffffffffffffff168273ffffffffffffffffffffffffffffffffffffffff1603610f06578060025f8282540392505081905550610f50565b805f5f8473ffffffffffffffffffffffffffffffffffffffff1673ffffffffffffffffffffffffffffffffffffffff1681526020019081526020015f205f82825401925050819055505b8173ffffffffffffffffffffffffffffffffffffffff168373ffffffffffffffffffffffffffffffffffffffff167fddf252ad1be2c89b69c2b068fc378daa952ba7f163c4a11628f55a4df523b3ef83604051610fad919061115b565b60405180910390a3505050565b5f81519050919050565b5f82825260208201905092915050565b8281835e5f83830152505050565b5f601f19601f8301169050919050565b5f610ffc82610fba565b6110068185610fc4565b9350611016818560208601610fd4565b61101f81610fe2565b840191505092915050565b5f6020820190508181035f8301526110428184610ff2565b905092915050565b5f5ffd5b5f73ffffffffffffffffffffffffffffffffffffffff82169050919050565b5f6110778261104e565b9050919050565b6110878161106d565b8114611091575f5ffd5b50565b5f813590506110a28161107e565b92915050565b5f819050919050565b6110ba816110a8565b81146110c4575f5ffd5b50565b5f813590506110d5816110b1565b92915050565b5f5f604083850312156110f1576110f061104a565b5b5f6110fe85828601611094565b925050602061110f858286016110c7565b9150509250929050565b5f8115159050919050565b61112d81611119565b82525050565b5f6020820190506111465f830184611124565b92915050565b611155816110a8565b82525050565b5f60208201905061116e5f83018461114c565b92915050565b5f5f5f6060848603121561118b5761118a61104a565b5b5f61119886828701611094565b93505060206111a986828701611094565b92505060406111ba868287016110c7565b9150509250925092565b5f60ff82169050919050565b6111d9816111c4565b82525050565b5f6020820190506111f25f8301846111d0565b92915050565b5f6020828403121561120d5761120c61104a565b5b5f61121a848285016110c7565b91505092915050565b5f602082840312156112385761123761104a565b5b5f61124584828501611094565b91505092915050565b6112578161106d565b82525050565b5f6020820190506112705f83018461124e565b92915050565b5f5f6040838503121561128c5761128b61104a565b5b5f61129985828601611094565b92505060206112aa85828601611094565b9150509250929050565b7f4e487b71000000000000000000000000000000000000000000000000000000005f52602260045260245ffd5b5f60028204905060018216806112f857607f821691505b60208210810361130b5761130a6112b4565b5b50919050565b5f6060820190506113245f83018661124e565b611331602083018561114c565b61133e604083018461114c565b949350505050565b7f4e487b71000000000000000000000000000000000000000000000000000000005f52601160045260245ffd5b5f61137d826110a8565b9150611388836110a8565b92508282019050808211156113a05761139f611346565b5b9291505056fea26469706673582212200c750e03610fe7a336fe605a7683eca9bdd6177d57960059e1a8f422db72201064736f6c634300081e0033","linkReferences":{}},"methodIdentifiers":{"_name()":"d28d8852","_symbol()":"b09f1266","allowance(address,address)":"dd62ed3e","approve(address,uint256)":"095ea7b3","balanceOf(address)":"70a08231","burn(uint256)":"42966c68","decimals()":"313ce567","mint(uint256)":"a0712d68","name()":"06fdde03","owner()":"8da5cb5b","renounceOwnership()":"715018a6","symbol()":"95d89b41","totalSupply()":"18160ddd","transfer(address,uint256)":"a9059cbb","transferFrom(address,address,uint256)":"23b872dd","transferOwnership(address)":"f2fde38b"},"id":6}